:020000040800F2
:10000000707F01209D010008893D0008F933000838
:10001000853D0008EB0900080D4D000800000000B8
:10002000000000000000000000000000B9440008CB
:10003000510A000800000000D13D0008A945000851
:10004000B7010008B7010008B7010008B7010008B0
:10005000B7010008B7010008B7010008B7010008A0
:10006000B7010008B70100080B0B0008B701000832
:10007000B7010008B7010008B7010008B701000880
:10008000B7010008B7010008B7010008B701000870
:10009000B7010008B7010008B7010008B701000860
:1000A000B7010008B7010008B7010008B701000850
:1000B0003D470008B7010008B7010008B701000874
:1000C000B7010008B7010008B7010008B701000830
:1000D000B7010008B7010008B7010008B701000820
:1000E000F10A0008B7010008B7010008B7010008CD
:1000F000B7010008B7010008B7010008B701000800
:10010000B7010008B7010008B7010008B7010008EF
:10011000B7010008B7010008B7010008B7010008DF
:10012000F1090008B7010008B7010008B70100088D
:10013000B7010008B7010008B7010008B7010008BF
:10014000B7010008B7010008B7010008B7010008AF
:10015000B7010008B7010008B7010008B70100089F
:10016000B7010008B7010008B7010008B70100088F
:10017000B7010008B7010008B7010008B70100087F
:10018000B7010008B7010008DFF80CD000F0BEFA94
:100190000048004791A60008707F0120064880476C
:1001A00006480047FEE7FEE7FEE7FEE7FEE7FEE75C
:1001B000FEE7FEE7FEE7FEE7B94500088901000813
:1001C00010B5431A934209D28318881803E010F837
:1001D000011D03F8011D521EF9D210BD40EA0103B2
:1001E0009B0703D009E008C9121F08C0042AFAD2ED
:1001F00003E011F8013B00F8013B521EF9D210BD9B
:10020000421C10F8011B0029FBD1801A704730B541
:1002100004460020034600E05B1C934203D2E05CEE
:10022000CD5C401BF8D030BD034611F8012B00F81F
:10023000012B002AF9D1184670472DE9FE4F804660
:1002400081EA0300C00F0C46009021F0004123F02A
:100250000045B8EB0200A94105D240462146904630
:100260001C460B46024623F00040104347D0270DA2
:10027000C7F30A00C3F30A510290401A01904028C4
:100280006BDAC3F3130040F4801B0098924620B150
:100290000023D2EB030A63EB0B0B01985946C0F124
:1002A0004002504600F08EF906460D46504659462B
:1002B000019A00F0A6F910EB08006141002487EADA
:1002C000115284EAE7731A4340D0009A62B3019A4C
:1002D000012A4FEA075215DC001B61EB02014FF0C7
:1002E000004202EA0752CDE90042001C41F58011AC
:1002F00032462B4600F0A4F903B0BDE8F08F40462B
:100300002146F9E7001B61EB0201001C41F5801357
:1003100000185B412018A2F5001747EB030140EAE3
:10032000D570B6196D4111E06D084FEA360645EA01
:10033000C0754FEA0752001B61EB0201001C41F53A
:10034000801149084FEA30000019514132462B46CE
:1003500003B0BDE8F04F00F066B9009801224000FC
:100360000023D0EB020263EBE073009821464FEAD2
:10037000E074B8EB000061EB0401E9E783F00043AF
:100380005BE781F0004158E72DE9FE4F81EA030465
:1003900004F0004421F0004100944FF0000B23F0E2
:1003A000004350EA01045ED052EA03045BD0C3F379
:1003B0000A54C1F30A552C44A4F2F3340194A0FB6F
:1003C0000254C1F3130141F48011C3F3130343F446
:1003D000801301FB024400FB034E840A970A44EA9F
:1003E000815447EA8357A4FB076802958D0A05FBF1
:1003F00007854FEA932C04FB0C542705029D4FEA16
:10040000065847EA1637B5EB08056EEB070C870E62
:10041000920E47EA811742EA8312A7FB0201B6EB6C
:100420000B0164EB00042B0D43EA0C335E1844EB24
:100430001C50DA465146E7FB0201C5F313044FEAAC
:100440000B3343EA14534FEA0432019C43EA060398
:10045000A4F10C040294009CCDE900B400F0F0F883
:1004600003B0BDE8F08F00200146F9E72DE9F04D1B
:1004700081EA030404F0004B21F0004514464FF0DC
:10048000000A23F0004150EA050220D054EA01029C
:100490001DD0C5F30A570246C5F31303C1F3130079
:1004A000C1F30A5640F4801543F48013A7EB060805
:1004B000101BD64608F2FD3873EB050002D308F195
:1004C000010801E092185B41B8F1000F03DA002047
:1004D0000146BDE8F08D00204FF4801106468446A9
:1004E0000EE0171B73EB050705D3121B63EB050327
:1004F00006434CEA010C49084FEA300092185B4170
:1005000050EA0107EDD152EA030012D082EA04005A
:1005100083EA0501084305D0101BAB4106D2012236
:10052000002306E000224FF0004302E06FF00102DA
:1005300053101AEB06004CEB085110EB0A0041EB8C
:100540000B01BDE8F04D00F06EB80EB5C10F80EAAA
:10055000E0700844CA07002140F233438DE80E00E2
:100560000A460B4600F06CF803B000BD0EB540F231
:10057000334102910021CDE900110A460B4600F0FB
:100580005FF803B000BD70B5C1F30A5201F0004539
:100590000024C1F3130140F2FF3341F480119A4269
:1005A00001DA002070BD40F233439A42A2F2334296
:1005B00003DC524200F015F800E090402C43F1D0EB
:1005C000404270BD202A04DB203A00FA02F10020EC
:1005D00070479140C2F1200320FA03F31943904081
:1005E0007047202A04DB203A21FA02F000217047EC
:1005F00021FA02F3D040C2F120029140084319468B
:100600007047202A06DBCB17203A41FA02F043EA72
:10061000E07306E041FA02F3D040C2F120029140BB
:1006200008431946704710B5002B08DA401C41F109
:10063000000192185B411A4301D120F0010010BD66
:100640002DE9F04D92469B4611B1B1FA81F202E0DC
:10065000B0FA80F220329046FFF7B4FF04460F460E
:1006600040EA0A0041EA0B0153465A46084313D0B8
:10067000114653EA010019D0C8F140025046FFF775
:10068000B0FF05460E46504659464246FFF79AFFD0
:10069000084305D0012004E020463946BDE8F08D2E
:1006A0000020054346EAE0762C4337430A98630569
:1006B000E40AA0EB08000022FD0A44EA47540A308D
:1006C00002D500200146E9E7010510196941DDE97D
:1006D000084500196941BDE8F04DA4E770B521F067
:1006E000004303430CD0C1F30A550024D5EB0405A5
:1006F00064EB0403D617AD1AB34102DB00200146B8
:1007000070BD201841EB025170BD0000064C074D32
:1007100006E0E06840F0010394E8070098471034D1
:10072000AC42F6D3FFF734FDECF400080CF50008FA
:1007300070B58C1810F8015B15F0070301D110F8A3
:10074000013B2A1106D110F8012B03E010F8016BD0
:1007500001F8016B5B1EF9D12B0705D40023521E53
:100760000DD401F8013BFAE710F8013BCB1A921CBB
:1007700003E013F8015B01F8015B521EF9D5A142B9
:10078000D8D3002070BD000070B5064600250024B7
:1007900040211D4800F0DCFF4FF480511A4800F062
:1007A000D7FF304600F034F8062009F065FF01203D
:1007B00009F062FF4021144800F0CCFF40211248AC
:1007C00000F0C6FF00BF14E04FF6FF7000EA4404DB
:1007D00040210D4800F0BCFF40210B4800F0BAFF5B
:1007E00001210A4800F0ABFF08B1601C84B2681C0C
:1007F000C5B2102DE8DB24114FF48051024800F0FF
:10080000A9FF204670BD0000000C0240000002401D
:1008100070B50446002500BF17E004F0800020B149
:1008200008210B4800F096FF03E00821084800F07B
:100830008FFF6006040E4021054800F089FF40212B
:10084000034800F087FF681CC5B2082DE5DB70BDCA
:10085000000C02400146002901DD0846704748426D
:10086000FCE72DE9F0410446B4F90470384601F084
:10087000EBF980462146384604F068FA08B9BDE82D
:10088000F08120680B2811D00C2804D00E2811D03C
:100890000F2834D105E022464146384608F0C5FB12
:1008A000EDE73946404608F025FDE8E7404606F00A
:1008B000B7FB24E0A0684568A06806680D2E02D04A
:1008C000202E1AD10CE0002D09DD4146384608F0F3
:1008D000D4F802224146384608F0E0F8CFE70CE0B1
:1008E000002D04DD4146384608F0C7F804E0022236
:1008F0004146384608F0D2F8C1E700BF00BF00BF4C
:10090000204604F04DFD00BFB9E700002DE9FF4F80
:1009100085B006460F469046DDE913ABDDF84890FA
:1009200000BF3421114A1FFA8AF0CDE90090CDE9C9
:100930000221424639463046089B04F09FFC04469B
:100940007CB1204601F080F9054610222846159911
:1009500004F01AFC2422064905F12800FFF730FCB8
:1009600000BF204609B0BDE8F08F00006308000812
:10097000E80000202DE9FF4704460D4616461F46B5
:10098000DDF8308000BFB4F90800618A0022CDE9AB
:100990000052CDE90210B4F91030B4F90E20B4F9C8
:1009A0000CC00CEB0701B4F90AC00CEB0600FFF712
:1009B000ADFF81464846616800F004F8484604B03F
:1009C000BDE8F08770B504460D466CB1204601F0D5
:1009D0003BF90646294606F14C0002F0C4FB10B173
:1009E000204605F078F800BF70BD00BFFEE70000AC
:1009F00010B50649064800F011F80021054803F03B
:100A0000D2FF01200449087010BD00002000001032
:100A100010640240000001404A0200200246094BD7
:100A20009A4201D2084801E00648103801F000530C
:100A30001BB1064B0B40C36002E0044B0B408360CC
:100A40007047000010640240006002407D0F7D0F7F
:100A5000704700002DE9F0430746894614461D46BD
:100A6000DDF81C802148007C00F00200E0B9B8F1FC
:100A7000000F0DD009E0268838F816204946384680
:100A800003F09CF86D1E7F1CA41C002DF3DC2AE0F3
:100A900007E022884946384603F090F86D1E7F1C17
:100AA000A41C002DF5DC1EE0B8F1000F0ED00AE00A
:100AB00026882EB138F816204946384603F07EF8CD
:100AC0006D1E7F1CA41C002DF2DC0CE009E02688C2
:100AD00026B132464946384603F070F86D1E7F1C39
:100AE000A41C002DF3DCBDE8F0830000E0620120CF
:100AF00010B54FF4005000F017F828B101F08EFF48
:100B00004FF4005000F00AF810BD10B5102000F0AE
:100B10000BF810B1102000F001F810BD0149086079
:100B200070470000143C0140014600200022074BA2
:100B30001B6803EA0102054B14331B680B4013B119
:100B40000AB1012000E0002070470000003C014095
:100B50002DE9F04788B00446B4F90470384601F036
:100B600073F80546D4F808906E6E0AE02046716866
:100B700088478046B8F1000F02D008B0BDE8F08782
:100B80003668002EF2D12068172832D00CDC0D28F0
:100B900062D004DC0B287BD00C287ED118E00F2813
:100BA00012D0142879D119E01E2836D0202869D017
:100BB000262822D02A2870D1A06810B1A068286603
:100BC00001E0286EA060D8E7284608F021FC64E028
:100BD00022462946384608F04DFACEE703A92846B2
:100BE00000F019F90498C9F800000598C9F8040044
:100BF000C3E7B5F94C00A060BFE7A06802280BD19D
:100C0000ADF80670A068029027200090B4F90600A5
:100C1000694605F0A1FD00BFAFE7A068012816D125
:100C2000B5F95C0004F09CFF20B1B5F95C0005F05B
:100C3000FDF805E0B5F94C0005F04EF9A5F85C00AB
:100C40000121384600F0CBF80020A06003E000212D
:100C5000384600F0C4F890E795F85A0000F0080014
:100C600068B9D4F808A0DAF80880B8F1000F05D008
:100C700098F8080010B1384605F0D8F800BF0CE02D
:100C800006E0FFE722462946384607F01FFF04E04A
:100C900005F1500000F03AFF00BF00BF2146384682
:100CA00004F054F800B968E7204604F079FB00BF6F
:100CB00063E700002DE9F04F89B00746884691466A
:100CC0009B46DDE9135A45F4805548222D4BA8B2C6
:100CD0001299CDE90232CDE900105B464A46414601
:100CE000384604F0CBFA0646002E47D0304600F0D6
:100CF000ABFF044630222046159904F045FA202225
:100D0000214904F12800FFF75BFA179844F8480FCF
:100D1000A4F812A00020A082E080E061483C04A971
:100D2000204600F078F80020184941F28272CDE99F
:100D30000062CDE90210BDF91AE0BDF916C0AEEBB4
:100D40000C0C0CF10103BDF918C0BDF914E0ACEBBB
:100D50000E0C0CF10102BDF91610704604F08EFA6B
:100D6000A4F84C0042F20400284010B9304604F0C8
:100D7000ABFB3046169900F03BF800BF304609B097
:100D8000BDE8F08F510B00080C010020470F000850
:100D90002DE9F04387B004460D4616461F46DDF8A0
:100DA0003880B4F90810628A6068CDE90408CDE99A
:100DB00002210020CDE90050B4F91030B4F90E2022
:100DC000B4F90CC00CEB0701B4F90AC00CEB060037
:100DD000FFF770FF8146484607B0BDE8F08370B565
:100DE00004460D461CB12946204608F0A8FD70BDFA
:100DF00070B504460D466CB1204600F025FF06464E
:100E0000294606F1500002F0AEF910B1204604F078
:100E100062FE00BF70BD2DE9F04F85B005460C465F
:100E2000002004900390B5F94260284605F0C9F906
:100E30000290284605F0CDF9019095F8260000F0C3
:100E4000200010B1B5F944000390284600F06AF87C
:100E50008046B5F84E0020B1B5F94E0004F09FFC75
:100E600004900FFA88F02080049800B2608030B2BD
:100E7000A0800298801B401E01B22181039830445B
:100E800000EB08010498084401B2E1800198801B3E
:100E9000401E01B2618130B2A0810298801B401EC9
:100EA00001B2218231B2E18106EB0800401E01B29D
:100EB0006182B5F918902FE0484600F0C5FE07465C
:100EC000B7F90000B5F90010A0EB010AB7F904006A
:100ED000B5F90010A0EB010BB7F90200B5F902104B
:100EE000401A00900098B04214D1387F00F0800082
:100EF00040B1B4F9100050450CDBAAF1010001B279
:100F0000218207E0B4F90C00584503DC0BF1010025
:100F100000B2A081B7F91A90B9F1000FCCD105B099
:100F2000BDE8F08F70B50446002594F8260000F067
:100F3000200030B1B4F940501DB9A06A01F046FC60
:100F4000851C284670BD2DE9FE430446B4F90470A3
:100F5000B4F9040004F0C0FB8046404600F074FE83
:100F60000546AE6C2068172861D008DC0E283ED0FC
:100F70000F280BD0142858D015285CD156E01E2815
:100F80001AD01F282ED0222855D14BE06FF0704187
:100F9000E86B884204D0E86B02F054FE00F0FCFFDE
:100FA00046B194E807008DE80700ADF80470684684
:100FB000B04700BFBDE8FE83A06890B1B5F85C0003
:100FC00040B1B5F95C00B84204D0B5F95C0004F05A
:100FD0002DFF04E0384604F07FFFA5F85C000020F8
:100FE000A060E7E72146404603F0B0FEE2E7A068D4
:100FF0004068002815DDA068D0F80090B9F1090F0D
:1010000008D0B9F10A0F0BD1384604F06FFFA5F8EC
:101010005C00CFE7384604F05FFFA5F85C00C9E745
:1010200000BF08E0E86BA060C4E700BF00BF204637
:1010300004F0B6F9BEE700BF26B1A4F8048020464C
:10104000B04702E0204604F0ABF900BFB2E7000071
:101050002DE9F04387B004460E461746D4F80C80BD
:10106000002001F0B0FC0546B8F1000F05D098F85B
:10107000041011B145F0020101E025F0020108461B
:1010800001F0A1FC206970B10122D4E902018DE8D0
:10109000070003926388228820693946D0F800C08F
:1010A0003046E0471EE0E06802F0B5FB8146B9F14A
:1010B000000F06D1E088012801D0002000E00C4894
:1010C0008146A188E288A068CDE90409CDE9022122
:1010D000012000900190638822883946304602F052
:1010E000A5F900BF284601F06EFC07B0BDE8F0830B
:1010F000E06201202DE9FC4104460D4616461F46DC
:101100000020019001A83B46324629460090204627
:1011100000F010F9BDE8FC812DE9FF4F83B0109D70
:1011200003990598401A029004990698401A019074
:101130004FF0000AD5F80080DDE90110084330B90E
:10114000DDE9030100F08EF907B0BDE8F08F0298E9
:10115000FFF780FB81460198FFF77CFB81450DDAA4
:1011600001A902A808F088FD04A903A808F084FDDD
:1011700006A905A808F080FD4FF0010A0298FFF7C4
:1011800069FB0299884210D002984042029001986F
:101190004042019005A903A808F06EFD06A904A825
:1011A00008F06AFD4FF0FF3600E0012601980028A4
:1011B0003DD1BAF1000F1DD05D48807E28B9DDE930
:1011C0000402039902F0B0FA30E000240BE040463C
:1011D00008F1010808F046FC20B9039801190498A9
:1011E00002F070FA641C02988442F0DDA8F101005C
:1011F00028601BE04E48807E20B903A807C802F093
:1012000033FA13E000240BE0404608F1010808F02F
:1012100029FC20B903990819049902F053FA641CB7
:1012200002988442F0DDA8F1010028608CE7029862
:1012300000EBD0714F100198002800DA7F423C4843
:10124000807E70BB002428E0019800FB0479B9F18E
:10125000000F01DD484601E0C9F1000047F6FF71CB
:10126000884205DA029899FBF0F00499084404E0FA
:10127000029899FBF0F0049908448346BAF1000FF4
:1012800005D103990819594602F01CFA04E00398A5
:101290000119584602F016FA641C02988442D3DD04
:1012A00044E0FFE7002E03DA28680299084428602A
:1012B00000242FE0019800FB0479B9F1000F01DD53
:1012C000484601E0C9F1000047F6FF71884205DA9F
:1012D000029899FBF0F00499084404E0029899FB05
:1012E000F0F004990844834629683144084629608F
:1012F00008F0B8FB68B9BAF1000F05D103990819D5
:10130000594602F0DFF904E003980119584602F04B
:10131000D9F9641C02988442CCDD002E03DA2868D7
:101320000299084428602868801B286000BF0BE7EA
:10133000E06201202DE9F04F89B006460F461446C1
:101340001D464748007E012808D112982B462246A8
:10135000394600903046FFF7DFFE7EE0301B0890F4
:10136000781B0790DDE907100843002874D001A816
:101370003B4B00901B7E5A1E791B301B02AB05F0C5
:1013800075FC029800280BDD0299481C00EBD07117
:101390004FEA6108029800EBD0714FEA610A0AE057
:1013A000029800EBD0714FEA61080299481E00EBE9
:1013B000D0714FEA610A019800280BDD0199481CA1
:1013C00000EBD0714FEA6109019800EBD0714FEA50
:1013D000610B0AE0019800EBD0714FEA61090199B5
:1013E000481E00EBD0714FEA610B06EB080000B21B
:1013F000ADF80C0007EB090000B2ADF80E00A6EB4B
:101400000A0000B2ADF81000A7EB0B0001B2ADF876
:101410001210A4EB0A0000B2ADF81400A5EB0B000B
:1014200001B2ADF8161004EB080000B2ADF81800D8
:1014300005EB090001B2ADF81A1000231A46042189
:1014400003A800F06FF83946304606F055FD2946EE
:10145000204606F051FD00BF00BF09B0BDE8F08F87
:10146000E062012070B504460D460A48007E01285E
:1014700004D12946204602F025F909E00548007EFE
:10148000461E06EBD67042102946204600F004F8AE
:1014900070BD0000E06201202DE9F0470546884656
:1014A000164640F2C32070434FF47A7190FBF1F07E
:1014B00000F1010906EBD671491006FB061A344605
:1014C000AA19A81B414602F0CFF8012725E007FB27
:1014D00007F004FB0400504512DD4C450FDDEB190D
:1014E0005A1E08EB0401EB1B581C02F0BDF8EB1967
:1014F0005A1EA8EB0401EB1B581C02F0B5F8641E41
:101500002A1908EB0701281B02F0AEF82A19A8EBEC
:101510000701281B02F0A8F87F1C4F45D7DDBDE866
:10152000F08700002DE9F04F87B0064689469246C5
:101530001F4640F6FF7006904042059000250CE0E3
:1015400006EB8500B0F902400698844200DA069462
:101550000598844200DD05946D1C4D45F0DB414843
:101560004069D8B13F484069B0F90600C11B0598F1
:10157000814205DA3B484069B0F90600C01B05907E
:1015800038484069B0F90200C11B0698814205DD68
:1015900034484069B0F90200C01B0690069C5BE02D
:1015A00007F0C0F9002550E0A9F10100A84201DDD3
:1015B000681C00E00020049006EB8500B0F902B042
:1015C000049806EB8000B0F90280A34524D1A04521
:1015D0000CD1049B36F9233003EB0A02E11936F9EA
:1015E000253003EB0A0006F069FC2DE023464A464D
:1015F0002946304607F00BF903900398A0420AD021
:10160000A8EB0403CDE900A703990A1B36F92500CE
:10161000214605F04DFA17E0A04515D0A04501DBA5
:10162000A34503DDA3450FDBA0450DDC049806EBC5
:10163000800306EB850203A9204605F037FC10B1B4
:10164000039805F00DFA00BF6D1C4D45ACDBE119A8
:10165000504606F07FFF641C05988442A0DD07B069
:10166000BDE8F08FE0620120F0B50A4600210023BA
:10167000002400BF3DE0012505FA01F3156805EAE5
:1016800003049C4234D105684F000326BE40B54395
:10169000056015794E00B54006683543056015793B
:1016A000012D02D01579022D16D185684F00032631
:1016B000BE40B543856055794E00B54086683543D8
:1016C0008560456801268E40B5434560456896793A
:1016D0008E40B6B235434560C5684F000326BE4014
:1016E000B543C560D5794E00B540C6683543C56081
:1016F000491C1029BFD3F0BDF0B5002300244D07CD
:10170000ED0E02FA05F3CE1000F1200555F8265033
:101710004E07F70E0F26BE40B543CF1000F120064E
:1017200046F82750CE1000F1200555F8265045EA1E
:101730000304CE1000F1200545F82640F0BD024616
:10174000002013690B400BB1012000E0002070471E
:1017500041837047018370472DE9F041044600271B
:10176000B4F90460304600F06FFA80462068B0F5A6
:10177000407F00D101272146304603F0E7FA0546B5
:101780001FB13146404607F001F90DB9BDE8F081BF
:101790002068052806D00B280FD00F2807D0262850
:1017A00036D10EE03146404607F0F0F830E03146E1
:1017B0004046A26807F052FAE8E7404607F0ACF965
:1017C000E4E7A068052802D006281FD11DE03046B6
:1017D00003F0A8FFB4F90610884207D1B4F9062037
:1017E000B4F90410404607F0E9FB0DE0304603F081
:1017F00092FFB4F90610884206D1B4F90620B4F974
:101800000410404607F0DAFB00E000BF00BF00BF55
:1018100000BF204603F0C4FD00BFB7E72DE9FF4F2E
:1018200085B006460F469046DDE913ABDDF84890DB
:101830006C21124A1FFA8AF0CDE90090CDE902210D
:10184000424639463046089B03F018FD05468DB1E7
:10185000284600F0F9F9044600222046159903F0C5
:1018600093FC3022064904F12800FEF7A9FCA4F8F5
:101870006CB000BF284609B0BDE8F08F59170008CA
:10188000300100202DE9FF4704460D4616461F464D
:10189000DDF8308000BFB4F90800618A0022CDE98C
:1018A0000052CDE90210B4F91030B4F90E20B4F9A9
:1018B0000CC00CEB0701B4F90AC00CEB0600FFF7F3
:1018C000ADFF8146484604B0BDE8F0872DE9F04FF2
:1018D00087B005464C48B0F92E800146C969886931
:1018E000294600F095F80646002E7DD03188691A09
:1018F000706800EBC104A778404602F0F9F9069041
:101900004248007858B14048B0F9260061783E4A14
:10191000D269927D01FB120000B23B49C8843A496A
:1019200001226068CDE90227CDE904010846C069BB
:10193000C07DC969897DDFF8D0C0CDE90010DCF831
:101940001CC09CF814302278DFF8BCC0BCF9281009
:10195000BCF9260001F06AFD2B48C069407D2A4988
:10196000C969097D884237DD2748C06990F817901A
:101970002548C069407D10FB09FA2348C069007DF5
:1019800010FB09FBB8F1020F25D000F0C6FE059050
:1019900000F0A4FE049001F010F8DFF86CC0BCF970
:1019A00026C094F800E00CEB0E02DFF85CC0BCF936
:1019B00028C00CEB0A03DFF850C0BCF928C00CEBC0
:1019C0000B01DFF844C0BCF9260001F0DBFE0598EE
:1019D00000F0F3FF00BF00BF069802F089F90B4842
:1019E000007868B9084800E00BE0B0F9260061789B
:1019F000054AD269927D11FB020000B20249C884F7
:101A000000BF07B0BDE8F08FE0620120AC0000200D
:101A100007E002888A4203DC42888A4200DB02E057
:101A200080680028F5D100BF7047000070B50446FB
:101A30000A49C96988692146FFF7EAFF054655B199
:101A40002988611A686810F831000449C969897DDC
:101A500010FB01F070BD0020FCE70000E0620120F7
:101A600000BF01220A80704770B504460D46294622
:101A7000A069FFF7CDFF06460EB1012070BD002022
:101A8000FCE72DE9F04105460C4614B90020BDE8FD
:101A9000F081204600F015F8064686B1304600F089
:101AA000D3F807462DB1224629463846FEF788FB73
:101AB00004E022460021384601F0E4FB00BF304636
:101AC000E5E770B504460CB9002070BD204605F06E
:101AD00021F805462846F8E770B504462046FFF78A
:101AE000F0FF05463DB1284600F0AEF80646224616
:101AF000002101F0C7FB284670BD10B5044604B9AB
:101B000010BD204606F048FD00BFF9E710B50446B9
:101B1000B4F90000FFF7F1FF0020208010BD70B580
:101B200005460E46002404E005EB4400FFF7EEFFF7
:101B3000641CB442F8DB70BD2DE9F041002605F0CD
:101B4000ABF9002514E005EB4500174951F82000DA
:101B500005EB4501144A02EB81014968084407EB93
:101B6000470152F821100C1AB44200DD26463D46CA
:101B700005EB45000C4901EB80000789002FE2D1FD
:101B800005EB450051F8200005EB4501064A02EB44
:101B9000810149680844C0F58034B44200DD26461E
:101BA0003046BDE8F0810000B002012070B5044667
:101BB00000251CB1204606F041FE0546284670BDB2
:101BC00040F601000949486088604FF480300861A0
:101BD000486100200860C860042005494860002072
:101BE000086008810120034908707047C86201201D
:101BF000B0020120800000202DE9F04705460C4688
:101C00002046FFF75EFF0646DEB1D5B12846FFF756
:101C1000CDFF8046A04501DA404600E02046074659
:101C2000304600F011F88246284600F00DF8814653
:101C30003A4649465046FEF7C3FA2846FFF75DFF8D
:101C400000BF3046BDE8F087014609B90020704763
:101C500001EB4100024A52F82000024A1044F6E724
:101C6000B0020120B00200202DE9F05F0446884652
:101C700016464FF00009CA4646B131464046FFF7C6
:101C800000FF5FEA000901D14FF0010ABAF1000F2D
:101C90001BD1B4F800B00BF101025100B4F90200FD
:101CA000FFF7AAFF05462DB94846FFF726FF4FF07C
:101CB000010A09E02846FFF7C7FF074627F81B90EF
:101CC00065802088401C208000BF5046BDE8F09F02
:101CD0002DE9F0410446B4F9027097B13846FFF798
:101CE000B3FF0646002504E006EB4500FFF70EFFB4
:101CF0006D1C2088A842F7DCA01CFFF707FF00201E
:101D00002080BDE8F0812DE9F04104460D464FF0FA
:101D100000082088A84209D9B4F902702FB13846CA
:101D2000FFF792FF064636F9158000BF4046BDE832
:101D3000F0812DE9F04105460E4600273146284640
:101D4000FFF7E1FF04461CB12046FFF77DFF074681
:101D50003846BDE8F08100002DE9F34F93B0884884
:101D60000088002878D0874801681398814201D004
:101D7000012000E0002084490A6814998A4201D0B9
:101D8000012100E0002108430028EBD07F480078C3
:101D9000002870D07E480068006808907848B0F944
:101DA0000000FFF751FF0990794800680068B0F81B
:101DB00000B0744913980968461A002E0DDD012001
:101DC00011900020129072480068006800881090FE
:101DD0001098A0F1010A0F960DE04FF0FF3011901E
:101DE000ABF1010012904FF0FF30109000200F90E7
:101DF000129800EB060A644914980968471A002FE4
:101E00000DDD01200D9000200E90614800680068F3
:101E100040880C900C98401E0A900B9710E04FF0F1
:101E2000FF300D905A48006800684088401E0E90B0
:101E30004FF0FF300C9000200B900E9838440A9021
:101E40000E9C8DE004EB07080B98844205DB0A9892
:101E5000844202DC012001E08FE0002007900B9813
:101E6000804504DB0A98804501DC012000E0002069
:101E70000690129D6FE078E0099800EB450104FBA5
:101E80000BF001EB4000019005EB060922462946C4
:101E9000089800F0CEFB03900F98854205DB55456E
:101EA00003DC079808B1012000E0002005900F989E
:101EB000814505DBD14503DC069808B1012000E02F
:101EC00000200490039898B1059828B1E21BA91B43
:101ED000089800F0AEFB58B9019B1A882D4BB3F956
:101EE000023019192B4BB3F90030581907F00CFECA
:101EF000049840B1099800EB490108FB0BF031F858
:101F0000100002900DE0234AB2F9022002EB080112
:101F1000204AB2F9002002EB090006F03BFC80B237
:101F20000290DDE901100880039890B1039806F053
:101F300015FD80B20090174AB2F9022002EB0801A9
:101F4000144AB2F9002002EB0900009A07F0DCFD08
:101F500000BF11980544109885428DD10D98044416
:101F60000C9884427FF46EAF00BF06491398086056
:101F700005491498086004F04BFF15B0BDE8F08FD8
:101F8000B0000020C8000020CC000020BB000020D2
:101F9000BC000020B200002010B50021084600F06F
:101FA0001BFC40F6FF731A465942084600F002F83F
:101FB00010BD00002DE9FC4104460D4616461F46A3
:101FC000042001F095FE80461548406C04441448F6
:101FD000806C05441248406C06441148806C0744EC
:101FE00020B2ADF8000030B2ADF8040028B2ADF870
:101FF000020038B2ADF80600684604F0F3F850B1BC
:1020000000BF3B4632462946204601F0BBFB04F0A8
:102010007BF80028F5D1404601F06AFEBDE8FC815E
:10202000E062012070B50446B4F90630B4F904202A
:10203000B4F90210B4F90000FFF7BCFF70BD2DE940
:10204000F04104460E46174654B12046FFF7FCFD0A
:10205000054628683A46314603682846984700BF37
:10206000BDE8F0812DE9FC4704460CB9BDE8FC87CA
:1020700000F05CFB07464B48B0F9268000F082FB7D
:1020800006464848008D801B00B24649088577E027
:1020900047F6FF71204600F0B5FF824651462046C4
:1020A00000F08EFF05463F4890F8300000F0030036
:1020B000012807D0022807D1284605EBD0714FEA46
:1020C000610904E0A94602E04FF0000900BF00BF2B
:1020D0003448C08CA0EB090000B23249C884ADF886
:1020E0000000BDF800002844401E00B2ADF8040016
:1020F0000846008DADF80200BDF802003844401ECD
:1021000000B2ADF806006A465146204600F022FEB5
:10211000BDF80200234908855146204600F086FD9F
:10212000044420780A2802D020780D281ED11D48AA
:1021300090F8300000F00300012802D0022805D1F9
:1021400000BF0FFA88F01749C88404E01548808C56
:102150001449C88400BF00BF20780A280CD1114858
:10216000008D384400B20F49088505E0BDF8000035
:10217000284400B20B49C884207800B903E0641CED
:102180002078002884D100BF0648008D304400B27A
:10219000044908850846B0F9300020F0030008869D
:1021A00000BF63E7E062012070B506460C461546A5
:1021B00020B20449C88428B208853046FFF752FF90
:1021C00070BD0000E062012070B504460D46164661
:1021D00047F6FF7332462946204600F001F870BDED
:1021E0002DE9FC4106460C4617469846C6B1002527
:1021F00064B1204603F0A6FE05463DB12A462146BD
:10220000684600F05BFF684603F09CFE43463A4692
:102210002146304600F008FE284603F093FE00BF3A
:10222000BDE8FC812DE9F04F87B006460C4690468C
:102230009A4616B907B0BDE8F08F20680490606830
:102240000590BDF91400BDF91010401A401C039010
:1022500000F06CFA054608F00C00A8B34FF0000936
:10226000B34600BF52465846039900F0B7FF0746F1
:10227000BB440FB109F10109002FF3D108F00C00A4
:10228000042805D0082802D00C281BD109E000BF83
:10229000BDF9160009FB1500401C00B2ADF8120094
:1022A00010E0BDF91610BDF91220891A491C09FB6E
:1022B000151000EBD07192B202EB610109B2ADF8DA
:1022C000121000BF00BF00BF204600F06EFB06905A
:1022D00000BF52463046039900F093FF0290BDF8CC
:1022E00012002844401E00B2ADF81600DDE90401DA
:1022F000CDE900013046029900F062FE814608F007
:10230000030098B1012815D002281BD1B4F904109C
:10231000B4F90020891AA1EB090000EBD07192B248
:1023200002EB610109B2ADF800100BE02088ADF8B6
:10233000000007E0A088A0EB0900401C00B2ADF847
:10234000000000BF00BF6A463046029900F002FD5F
:1023500052463046039900F041FF0644BDF8120092
:10236000284400B2ADF8120030780028B1D10698A8
:1023700000F01BFB00BF5DE77CB504460D4616462A
:102380001348406C05441248806C064428B2ADF8EE
:10239000000021880844401E00B2ADF8040030B2AD
:1023A000ADF8020061880844401E00B2ADF8060096
:1023B000684603F017FF48B100BF32462946204661
:1023C000FEF746FE03F0A0FE0028F6D17CBD00001B
:1023D000E06201207CB504460D462A462146684647
:1023E00000F0B0FEBDF800001749B1F844100844F1
:1023F00000B2ADF80000BDF802001349B1F8481072
:10240000084400B2ADF80200BDF804000E49B1F86E
:102410004410084400B2ADF80400BDF806000A49B3
:10242000B1F84810084400B2ADF80600684603F061
:10243000D9FE38B100BF684605F078FC03F064FEB1
:102440000028F8D17CBD0000E06201207CB5044684
:102450000D4616461148406C05441048806C0444F3
:102460000E48406C064428B2ADF8000030B2ADF81A
:10247000040020B2ADF80200ADF80600684603F093
:10248000B1FE48B100BF32462146284601F0ECF8C3
:1024900003F03AFE0028F6D17CBD0000E062012086
:1024A0002DE9F04104460D4616461F460E48406C85
:1024B00004440D48806C05440B48406C06440A48AF
:1024C000806C0744002003F08DFE50B100BF3B46F6
:1024D000324629462046FEF70DFE03F015FE002881
:1024E000F5D1BDE8F0810000E06201202DE9FC415A
:1024F00005460E46174698461848007E441E174863
:10250000406C05441548806C06441448406C0744F0
:102510001248806C8044281B00B2ADF800003819C6
:1025200000B2ADF80400301B00B2ADF8020008EBB9
:10253000040000B2ADF80600684603F053FE50B147
:1025400000BF43463A463146284605F0E9FC03F011
:10255000DBFD0028F5D1BDE8FC810000E062012030
:102560007CB504460D4616461148406C044410489C
:10257000806C05440E48806C064420B2ADF8000023
:10258000ADF8040028B2ADF8020030B2ADF8060094
:10259000684603F027FE48B100BF32462946204670
:1025A00001F0C2F803F0B0FD0028F6D17CBD0000B8
:1025B000E06201202DE9FC4104460D4616461F4607
:1025C0001448406C04441348806C05441148406C26
:1025D00006441048806C074420B2ADF8000030B2C9
:1025E000ADF8040028B2ADF8020038B2ADF806002C
:1025F000684603F0F7FD50B100BF3B46324629461E
:10260000204601F0BFF803F07FFD0028F5D1BDE8BA
:10261000FC810000E062012070B50446B4F9063088
:10262000B4F90420B4F90210B4F90000FFF7C2FFB6
:1026300070BD70B503460C46DD88042D29D004DC3E
:10264000012D07D0022D45D113E0082D30D0102DDB
:1026500040D133E09D88554305EBD4019D68685C0B
:1026600004F00705C5F1070520FA05F505F001009E
:1026700032E09D88554305EB94019D68685C062512
:1026800005EA4405C5F1060520FA05F505F0030045
:1026900022E09D88554305EB54019D68685C04F079
:1026A000010515B100F00F0500E00509284613E00B
:1026B0009D8802FB05419D68685C0DE09D8855433F
:1026C00005EB44019D686D5C9E680E44767845EA92
:1026D000062001E0002000BF00BF70BD70B501F012
:1026E0008BF8054601F0C2F80446204670BD000094
:1026F00070B504460348C0694168204688470546CE
:10270000284670BDE062012010B5044604B910BD32
:10271000204602F007FF00BFF9E770B501F072F83C
:10272000054601F0A3F80446204670BD0149C96979
:10273000487D7047E062012070B504460D460CB933
:102740000648C469207FA870A07F2871607FE87068
:1027500029462046A268904770BD0000E062012033
:102760000149887E70470000E062012070B5044690
:10277000204600F069FC05462946204600F020FC72
:1027800070BD00000020104991F8301001F00C01DC
:10279000042904D008290ED00C2913D104E00A49D9
:1027A000C969097D481E0DE0074AD269117D01EB18
:1027B000D172501006E0044AD269117D01EBD1724A
:1027C000501000BF00BF7047E06201200146087D45
:1027D000CA7D10FB02F0704770B506460C463046C5
:1027E00006F090F80546204606F094F80543284682
:1027F00070BD000070B504460449B1F95000FFF700
:1028000023FA05462046E969884770BDE062012049
:1028100010B50449B1F95000FFF716FA0446606A92
:10282000804710BDE062012070B505460B49B1F943
:102830005000FFF709FA04462088288060886880E5
:102840002088A1880844401E00B2A8806088E188E2
:102850000844401E00B2E88070BD0000E062012024
:1028600070B504460449B1F95000FFF7EDF905468B
:102870002046296A884770BDE062012010B570B318
:1028800071B36AB3B1F90030B2F90040A34202DD7E
:10289000B2F9003001E0B1F900300380B1F9023043
:1028A000B2F90240A34202DDB2F9023001E0B1F90F
:1028B00002304380B1F90430B2F90440A34202DD92
:1028C000B1F9043001E0B2F904308380B1F9063087
:1028D000B2F90640A34204DDB1F9063003E00CE092
:1028E00003E0B2F90630C38010BD09B10B4600E029
:1028F00013461C6804605B68436000BFF4E778B16E
:1029000003880B441BB2038083880B441BB2838073
:10291000438813441BB24380C38813441BB2C38053
:10292000704700000146054B0DCB81E80D00087A89
:1029300008B1012070470020FCE700008C02002055
:1029400010B5044606F0CEFC0C2221460448FDF7E3
:102950005EFC18B1024894E80E000EC010BD0000E5
:102960008C0200200246B2F90200B1F9063098420A
:1029700013DCB1F90200B2F9063098420DDCB2F96D
:102980000000B1F90430984207DCB1F90000B2F957
:102990000430984201DC012070470020FCE710B5AC
:1029A0000446204601F04EF910BD70B5044620469D
:1029B00003F0C8FA0546284670BD10B50446204607
:1029C00001F078F910BD70B50446204601F090F989
:1029D0000546284670BD00000146024AD06901B193
:1029E000D1617047E06201200146024A907E9176F3
:1029F00070470000E06201200146034AB2F92E0050
:102A00000AB2014BDA857047E06201200249096889
:102A100009B90149086070473C00002070B537488B
:102A2000006836494968884208DA34480068344901
:102A30000860324840683349086007E02F48006862
:102A4000304908602D4840682D4908602B4881684E
:102A5000C068814208DA294880682B490860274805
:102A6000C0682A49086007E0244880682749086050
:102A70002248C068244908602548007858B900F009
:102A8000B0F82449086000F09CF821480078401C08
:102A90001F4908702FE000F095F81F49086000F00A
:102AA0008FF81C4805681C48046815480068854272
:102AB0000BDB14480068854207DC13480068844239
:102AC00003DB12480068844205DD4FF0FF31084601
:102AD00007F0ACF80BE0284603F09EFF05462046C1
:102AE00003F0ACFF04462146284607F09FF800207B
:102AF0000749087000BF00BF70BD00004C000020F7
:102B00005C000020600000206400002068000020BD
:102B100074000020480000204400002070B50546E5
:102B20000C46002D08DB002C06DB0120064908724C
:102B300008460560446002E000200349087202482C
:102B400000F004F870BD0000A402002010B5044697
:102B50000C2206492046FDF75AFB30B1034894E8A1
:102B60000E000EC02046FFF7EBFE10BD98020020BD
:102B70002DE9F04104460D460F490968601A002806
:102B800001DB014600E041420E460C490968681A23
:102B9000002801DB014600E041420F46F0190228FF
:102BA00007DD054804600548056029462046FFF713
:102BB000B5FFBDE8F0810000780000207C00002017
:102BC0007047704770B50024002506E0D020FDF75F
:102BD000DBFD204484B2681CC5B2202DF6DB6011F9
:102BE00070BD70B50025002400BF06E09020FDF701
:102BF000CBFD204484B2681CC5B2202DF6DB6011E9
:102C000070BD000070B5044625680748006A016879
:102C10002846884706460448006A4168284688478F
:102C200005442560304670BDE06201202DE9F04189
:102C300005460E46002707E00748006A4168284617
:102C400088470446254427443000A6F10106F3D105
:102C50003846BDE8F0810000E06201202DE9F04136
:102C600004460E4615461F46DDF8188000BF2A466A
:102C70006D1CA0683B463146D0F804C02046E047B2
:102C8000A8F101005FEA0008F1D1BDE8F0812DE96B
:102C9000F05F83460C4615469946BBF1000F52D0B3
:102CA0005846FFF763FD824609F0030001280ED065
:102CB000022812D1B4F90410B4F90020891A491C71
:102CC000A1EB0A0000EBD07102EB610608E0B4F959
:102CD0000400A0EB0A00461C02E0B4F9006000BF4B
:102CE00000BFFFF723FD804609F00C00042810D038
:102CF000082815D00C2812D1B4F90610B4F9022016
:102D0000891A491CA1EB080000EBD07102EB6107A6
:102D100009E0B4F90600A0EB0800471C03E000BF7F
:102D2000B4F9027000BF00BF30B2288038B26880AA
:102D300006EB0A00401E00B2A88007EB0800401E08
:102D400000B2E88003E02068286060686860BDE841
:102D5000F09F00007CB505460E46144630480068DA
:102D600078B1002003F03EFA002858D000BF6A4630
:102D70003146284604F080F903F0C6F90028F6D160
:102D80004DE02068009060680190BDF80000254982
:102D9000B1F84410084400B2ADF80000BDF80200DC
:102DA0002049B1F84810084400B2ADF80200BDF85F
:102DB00004001C49B1F84410084400B2ADF8040006
:102DC000BDF806001749B1F84810084400B2ADF844
:102DD0000600684603F006FA80B100BFBDF80000A7
:102DE0001049C884BDF8020008856A463146284665
:102DF00004F042F903F088F90028EFD10948C08CAB
:102E00000849B1F84410401A00B20649C88408467F
:102E1000008DB1F84810401A00B2024908857CBD07
:102E20009C000020E06201202DE9FF4F87B00F4693
:102E3000154698464FF0000907980290002001902F
:102E4000FFF774FC824627B13868059078680690D1
:102E500002E005A8FFF758FC05F00C0010B9BDF919
:102E600016903AE044464FF0010B13E021460798D4
:102E700000F0C8F80646A41B31460798FFF7D6FEB7
:102E800007990844079007A800F0EBF800B103E0A9
:102E90000BF1010B002CE9D100BF05F00C00042858
:102EA00005D0082802D00C2815D107E000BFBDF9D5
:102EB0001A000BFB1A0000F101090CE0BDF91A1011
:102EC000BDF91620891A491C0BFB1A1000EBD071B2
:102ED00002EB610900BF00BF00BF444602980790A3
:102EE00057E02146079800F08DF80646A41B3146AE
:102EF000079800F065F8834605F0030080B10128CB
:102F000012D0022817D1BDF91810BDF91420891A62
:102F1000A1EB0B0000EBD07102EB610101910AE023
:102F2000BDF91400019006E0BDF91800A0EB0B00FC
:102F3000401C019000BF00BF019800B21849C8842E
:102F4000ADF80C00BDF80C005844401E00B2ADF8BE
:102F500010000FFA89F00885ADF80E0009EB0A00A1
:102F6000401E00B2ADF8120003AA31460798FFF7E1
:102F7000F1FE31460798FFF759FE0799084407907C
:102F8000FFF7D4FB814407A800F06BF800B102E022
:102F900000BF002CA5D100BF0BB0BDE8F08F000032
:102FA000E062012010B50246002331B1084601EB72
:102FB000D07402EB640494FBF1F3184610BD0000DA
:102FC00073B50C4600250098C0B10D48C069006972
:102FD00038B10B48C06900692146026800989047E3
:102FE0007CBD07E06846FFF70DFE06463046FFF75A
:102FF0007FFB0544601E041EF4DA00BF2846EFE79D
:10300000E062012073B50D4600240098C0B10D4860
:10301000C069006938B10B48C06900692946426837
:10302000009890477CBD08E06846FFF7EBFD064638
:103030000EB10A2E00D102E0641CAC42F4DB00BFEA
:103040002046EFE7E062012031B50024009830B15E
:1030500000E0641C6846FFF7D5FD0028F9D1204642
:1030600038BD01460A6812F8013B0BB901207047D0
:103070000A2B00D10A600020F9E7B0F90020B1F96D
:1030800000309A4201DA0A880280B0F90220B1F9D0
:1030900002309A4201DA4A884280B0F90420B1F93C
:1030A00004309A4201DD8A888280B0F90620B1F9A5
:1030B00006309A4201DDCA88C280704710B50346C7
:1030C000B1F90000B2F90040A04202DDB1F9000000
:1030D00001E0B2F900001880B1F90200B2F9024033
:1030E000A04202DDB1F9020001E0B2F9020058800D
:1030F000B1F90400B2F90440A04202DDB2F90400C3
:1031000001E0B1F904009880B1F90600B2F9064077
:10311000A04202DDB2F9060001E0B1F90600D88054
:10312000B3F90400B3F90040A04201DA002010BD59
:10313000B3F90600B3F90240A04201DA0020F6E735
:103140000120F4E70B8813441BB203808B889B1A81
:103150001BB283804B8813441BB24380CB889B1ADD
:103160001BB2C38070472DE9F05F05460F464FF054
:103170000008B5F900903946484600F0EFF850B322
:10318000384600F0F9F8461C4846FEF70FFD824627
:1031900056450BD14846FEF757FD83463246394621
:1031A0005846FDF70DF84FF0010813E03046FEF7E2
:1031B00088FC044674B12046FEF746FD8346394636
:1031C0005846FDF731F82846FEF7A0FC2C804FF05A
:1031D000010800BF00BF4046BDE8F09F2DE9F04167
:1031E00004460D46164632462946204600F014F89D
:1031F000804641462046FFF719FD07463846BDE8A0
:10320000F08170B504460D46164600233246294625
:10321000204606F02AFE70BD2DE9F74181B00E462A
:1032200017466B463A463146019806F01EFE0446A4
:1032300021460198FFF7FAFC01990844019001A882
:10324000FFF7E0FC05460A2D01D1641C16E0012FB2
:1032500014D1202D12D12846FFF74AFA804607E004
:10326000641C00984044009001A8FFF7CBFC054681
:10327000202D02D100988642F2DA00BF204604B029
:10328000BDE8F08170B503460D4602E003F8015B2E
:10329000521E1AB103F003000028F7D19108A9B11A
:1032A00002F0030205EB054606EB0624184604E08F
:1032B00010C010C010C010C0091F0429F8DA01E0C6
:1032C00010C0491E0029FBD1034600BF02E003F8ED
:1032D000015B521E002AFAD170BD70B503460C4640
:1032E000154603F0020010B123F8024B6D1E690869
:1032F000A9B104EB04421846042909DB00BF0260AF
:1033000042608260C26010300E1F3146042EF6DA31
:1033100001E004C0491E0029FBD1034600BF05F0AF
:10332000010000B11C8070BD024602B90AA201B9B9
:1033300009A100BF10780B78984201D00120704796
:10334000491C501C024600780028F3D1087808B1C7
:103350000120F4E70020F2E70000000070B5044609
:103360000D4600261CB12046FEF76EFC0646294697
:103370003046FFF7D9FF70BD01464FF0FF3029B14D
:1033800000BF401C11F8013B002BFAD1704710B56B
:10339000044604F5806000F001F810BD70B50146E8
:1033A0000025C1F30B01B1F5006F02DDA1F500614D
:1033B0000125B1F5806F01DDC1F500618C1101F0CF
:1033C0003F00C0F140020B4830F8140000FB02F34C
:1033D000402A07D0074E601C36F81000C2F14006A4
:1033E00000FB063303F1200083090DB1584270BD84
:1033F0001846FCE760A7000800BFFEE710B50446CA
:103400000248C06C01682046884710BDE062012078
:1034100010B50146C1F3C402C1F38523C1F3C4440E
:1034200004EB431000EBC22010BD00002DE9FF4F5C
:103430008BB0054690461F46DDF860A0DDF8689029
:103440001C9E00200A908648006898B11B991D9820
:10345000CDE90291CDE904601998CDE900A080483A
:1034600000683B464246046828460C99A0470FB0C6
:10347000BDE8F08F0C983844401E089005EB08001A
:10348000401E099019984AEA000001287BD175482E
:10349000B0F90A100C980C1A002C0ADD3F1B002F03
:1034A00000DCE4E76F48B0F90A000C901B9804FBBD
:1034B00000666C48B0F90E100898441A002C03DD21
:1034C0003F1B002F00DCD2E76648B0F90C100998CA
:1034D000441A002C01DDA8EB040800246148B0F96F
:1034E0000800A84239DD5F48B0F90800441BA8EB8A
:1034F0000408B9F1040F1ED006DCB9F1010F0AD09F
:10350000B9F1020F28D10EE0B9F1080F1BD0B9F1C3
:10351000100F21D11BE006EBE406E01005EBC0051F
:1035200004F0070418E006EBA406A01005EB8005E4
:1035300004F0030410E006EB6406601005EB4005A0
:1035400004F0010408E026442544002404E006EBCE
:1035500044062544002400BF00BFB8F1000F00DC82
:1035600085E71B991D98CDE90091CDE9026404908F
:103570003C48C06C3B464246D0F80CC028460C99EB
:10358000E0476AE0FFE7C9F1080005900C9C0020C5
:1035900006905EE019982044401E04903148B0F92E
:1035A0000A10049881424DDC2E48B0F90E00A0426A
:1035B00048DB002003900196079502903EE00398B7
:1035C00038B9019800780A900198401C01900820B1
:1035D000039005990A9840FA01FB0A9800FA09F04D
:1035E000C0B20A900398A0EB09000390BBF1000F52
:1035F00004D11C48007C00F00200C8B9194840887A
:1036000000901D9828B11D9830F81B00154948807E
:1036100002E01448A0F802B007985044421E214628
:10362000049B079800F0AEF80E490098488000BF50
:103630000298401C02900798504407900298404519
:10364000BDDB00BF0698401C0690199804441B98E7
:1036500006440698B8429DDB00BF00BF07E70000A4
:103660009C000020E062012070B504460D4616461D
:103670001348B0F90A00A84200DD70BD1048B0F947
:103680000E00A84200DAF8E70D48B0F90800A042A1
:1036900002DD0B48B0F908400948B0F90C00B0420F
:1036A00002DA0748B0F90C60A64200DAE5E7044800
:1036B000C06C3246294603692046984700BFDCE7C4
:1036C000E062012070B504460D461648B0F90A00C4
:1036D000A84200DD70BD1348B0F90E00A84200DA20
:1036E000F8E71048B0F90800A04200DDF2E70D4805
:1036F000B0F90C00A04200DAECE70A48007C00F0C8
:10370000010030B10748C06C2946826A20469047C4
:1037100006E004484288C06C2946436A2046984720
:1037200000BFD7E7E062012070B504460D4616469B
:103730001348B0F90800A04200DD70BD1048B0F990
:103740000C00A04200DAF8E70D48B0F90A00A842E0
:1037500002DD0B48B0F90A500948B0F90E00B0423A
:1037600002DA0748B0F90E60AE4200DAE5E7044835
:10377000C06C3246294643692046984700BFDCE7C3
:10378000E06201202DE9F04104460D4616461F4631
:103790001848B0F90800A04202DD1648B0F9084008
:1037A0001448B0F90C00B04202DA1248B0F90C60CB
:1037B000A64201DABDE8F0810E48B0F90A00A8423D
:1037C00002DD0C48B0F90A500A48B0F90E00B842C0
:1037D00002DA0848B0F90E70AF4200DAEAE70548AD
:1037E000C06C3B4632462946D0F818C02046E04718
:1037F00000BFDFE7E0620120014800887047000059
:10380000E06201200148408870470000E06201202A
:103810004FF6FF70704710B50446204600F002F8DE
:1038200010BD00002DE9F041044614B90020BDE8A8
:10383000F081A06808B90020F9E72068B0F5807F22
:1038400001DD0020F3E72668A768002507E057F8A8
:103850002500FFF7D3FD044921F815006D1CB54282
:10386000F5DB0148E3E700003C63012010B50446A6
:103870000248C06C41682046884710BDE0620120C4
:1038800030B5014601F01F03C1F34512C1F3C42452
:10389000C4EB04201F25B0FBF5F4C2EB02203F254A
:1038A000B0FBF5F2C3EB03201F25B0FBF5F304EBEF
:1038B000022000EB034030BD70B504462046FFF700
:1038C000A7FD0546284670BD2DE9FC5F82460D46E2
:1038D00016469846DDF830B0DDF83890109F002489
:1038E00040E0BBF1040F20D006DCBBF1010F0AD091
:1038F000BBF1020F32D10FE0BBF1080F1ED0BBF1BC
:10390000100F2BD122E06119CDE900674A465046DD
:103910000F9B03F017FC21E06119CDE900674A46CF
:1039200050460F9B03F022FD18E06119CDE90067B6
:103930004A4650460F9B03F04BFE0FE06119334699
:103940004A465046009703F0B9FF07E06119334635
:103950004A4650460097FDF77DF800BF00BF0D981E
:103960008144641C4445BCDBBDE8FC9F70B5044643
:103970000D4616462048007C00F0010040B104E0EE
:103980002946204600F04EF9641CB442F8DD31E0CF
:103990002A204FF0C041088040F2DF10801BC0F3A6
:1039A0000F2016490880C6F1DF00C0B2088040F23F
:1039B000DF10001BC0F30F200880C4F1DF00C0B28D
:1039C00008802B2041070880C5F30F200B49088091
:1039D000E8B20880C5F30F200880E8B208802C20E8
:1039E000C106088004E00448408804490880641C3B
:1039F000B442F8DD70BD0000E0620120000002600A
:103A0000F0B505460C46164600272048007C00F01D
:103A1000010040B104E02146284600F003F9641C8F
:103A2000B442F8DD31E02A204FF0C041088040F276
:103A3000DF10401BC0F30F2015490880C5F1DF00DF
:103A4000C0B2088040F2DF10401BC0F30F20088096
:103A5000C5F1DF00C0B208802B2041070880C4F305
:103A60000F200B490880E0B20880C6F30F200880C1
:103A7000F0B208802C20C106088004E0034840888A
:103A800003490880641CB442F8DDF0BDE062012007
:103A900000000260F0B5002400252A264FF0C04740
:103AA0003E8040F2DF16B61AC6F30F26184F3E804E
:103AB000C2F1DF06F6B23E8040F2DF16361AC6F3D8
:103AC0000F263E80C0F1DF06F6B23E802B26770738
:103AD0003E80C1F30F260E4F3E80CEB23E80C3F330
:103AE0000F263E80DEB23E802C26F7063E805E1A10
:103AF000761C171A7F1C06FB07F500BF04E0054E75
:103B00007688034F3E80641CAC42F8D9F0BD0000BB
:103B100000000260E0620120014600BF0020704703
:103B200010B5FFF775FE10BD10B5024600BF00BF0F
:103B30002A234FF0C044238040F2DF139B1AC3F3C3
:103B40000F23134C2380C2F1DF03DBB2238040F24A
:103B5000DF139B1AC3F30F232380C2F1DF03DBB211
:103B600023802B235C072380C1F30F23084C238081
:103B7000CBB22380C1F30F232380CBB223802E232B
:103B80004FF0C0442380024B1888188810BD0000F5
:103B90000000026000210180418040F2DF1181803D
:103BA00040F23F11C180704710B504462046FFF730
:103BB00067FE10BD00BF00BF7047000010B500BF1A
:103BC00000BF00BF2A234FF0C044238040F2DF1320
:103BD0001B1AC3F30F23124C2380C0F1DF03DBB2A7
:103BE000238040F2DF131B1AC3F30F232380C0F19D
:103BF000DF03DBB223802B235C072380C1F30F2379
:103C0000074C2380CBB22380C1F30F232380CBB298
:103C100023802C23DC062380014C228010BD000071
:103C20000000026070B504460D4629462046FFF7A5
:103C30007BFF86B2C6F58030421E29462046FFF73C
:103C4000BDFF70BD70B504460648806BA04207D02A
:103C5000044884632046FFF7D1FB054600F004F8D2
:103C600070BD0000E062012010B50446002004F0A1
:103C700017FD024921F8104010BD0000E06201204C
:103C80001CB504460548C06C016A684688476A4608
:103C9000214602480830FFF711FA1CBDE0620120FE
:103CA00010B50348C06C016A01480830884710BD50
:103CB000E062012070B504460648406BA04207D080
:103CC000044844632046FFF799FB054600F004F8DA
:103CD00070BD0000E062012010B50446012004F030
:103CE000DFFC024921F8104010BD0000E062012015
:103CF00010B50146084A107C127C4A4002F00402CA
:103D00003AB1054B1A885B88034C238023465A80BE
:103D100000BF014B197410BDE06201201CB50121E8
:103D2000082000F089F901208DF8040000208DF8AA
:103D3000060003208DF8050000208DF807004FF4E1
:103D40004050009069460D48FDF78EFC012110207F
:103D500000F072F901208DF8040000208DF80600B3
:103D600003208DF8050000208DF807000120009049
:103D700069460348FDF778FC1CBD0000000C0240BA
:103D80000010024000BFFEE7704700001CB5012193
:103D9000022000F061F90121022000F04DF92020FD
:103DA000009002208DF805008DF8040000208DF8A9
:103DB00006008DF8070069460448FDF755FC02220D
:103DC00005210248FDF798FC1CBD000000040240DC
:103DD000704770B504460D4654B12046FDF734FFD8
:103DE0000646B6F948004119204600F0E9F800BF40
:103DF00070BD70B50446B4F904603046FDF724FF89
:103E000005462146304600F0A1FF00B970BD20688C
:103E10000E2819D004DC0B281BD00C281ED10DE075
:103E20000F2802D02B2819D104E02946304604F08F
:103E3000D7FFEBE795F85000A060E7E72246294658
:103E4000304605F045F909E02146304604F0ACFE65
:103E500004E005F14400FDF73BFF00BF00BF204632
:103E600001F09EFA00BFD1E72DE9FF4F85B09146E2
:103E7000DDF850B0DDF848A0DDE91656304800699D
:103E80004088001D0490002E01DC142000E0304624
:103E90000646002D01DC022000E028460546089871
:103EA00020B9681E049900FB06100890B9F1000FB4
:103EB00004D123480069008800F10409139840F0F8
:103EC0000100139034211F4A139880B2CDE900A05D
:103ED000CDE902214A46089BDDE9050101F0CEF952
:103EE00007464FB33846FDF7AFFE04464FF00008D3
:103EF00007E00022114604F14400FDF7B5FE08F189
:103F00000108A845F5DB0BF4807B4BF0100220463E
:103F1000159901F039F91C22094904F12800FCF730
:103F20004FF9504601F0F0FA44F8280FE584668412
:103F30000498A084283C00BF384609B0BDE8F08F43
:103F400060010020F33D00082DE9F04F87B00446E2
:103F50000D4616461F46DDF8408094F81490A08A5E
:103F6000C0F3072A00BFB4F908000021CDE9049A84
:103F7000CDE90210608ACDE90050B4F91030B4F9EF
:103F80000E20B4F90CC00CEB0701B4F90AC00CEB1D
:103F90000600FFF769FF8346584607B0BDE8F08F7B
:103FA00010B504464FF0FF312046FFF712FF10BD59
:103FB00010B5044601212046FFF70BFF10BD00009D
:103FC00070B505460C46CDB12846FDF73DFE0646C8
:103FD00096F8500048B10A48006830B12246314690
:103FE0002846074B1B68984707E0002C00DA00249E
:103FF00022463146284600F005F800BF70BD00009B
:104000007C01002070B506460C461546B4F84E00FB
:10401000A84202DCB4F84E00451EB4F94800A8429C
:1040200009D028B2A4F84800304601F054FD05211B
:10403000304601F0A7FD70BD29B1064A126802435F
:10404000044B1A6004E0034A12688243014B1A6071
:10405000704700003038024029B1064A1268024316
:10406000044B1A6004E0034A12688243014B1A6051
:104070007047000040380240002001490880704726
:10408000DE01002070B504460D4644B12046FDF720
:10409000DBFD0646B06B4119204600F003F970BD08
:1040A00070B50446B4F904603046FDF7CDFD054611
:1040B0002146304600F04AFE00B970BD20680F2846
:1040C00010D006DC0B2809D00C280FD00E2828D1E0
:1040D00012E023281BD0242823D112E0304600F020
:1040E00003F91EE0284605F039FAE6E7224629469C
:1040F000304605F027F814E02146304604F073FD01
:104100000FE029463046A26804F071FF09E0686BB1
:10411000A1680860E86BA1688860A86BA168486026
:1041200000BF00BF204601F03BF900BFC5E72DE905
:10413000FF4107460C4604F0080018B1FE2540F286
:104140008A5602E0FF2540F28A3600231A461946B5
:104150001846CDE90076CDE9024500F009F8804621
:104160000621404601F00EFD404604B0BDE8F08156
:104170002DE9FF4F85B016461F46DDF848B0DDE952
:1041800014895EBB57BB03A9584601F026FA08F014
:10419000080088B13348B0F90060BDF91000401C38
:1041A000801B0590BDF90E000690BDF91200BDF907
:1041B0000E10401A471C10E02A48B0F90070BDF9F3
:1041C0001200401CC01B0690BDF90C000590BDF903
:1041D0001000BDF90C10401A461C00BF2021224AD5
:1041E000139880B23B46CDE900B0CDE902213246BA
:1041F000DDE9050101F042F88246BAF1000F2CD04A
:104200005046FDF721FD0446002508F0080008B1DE
:1042100045F0080508F0100008B145F01005B9F1A7
:10422000FF0F04D0B9F1FE0F01D045F010052A466A
:104230004946204600F0A8FF0C4AD2E900109268D7
:10424000C4E90B02A162642060630A20E0630020DD
:10425000A063504600F048F800BF504609B0BDE8E2
:10426000F08F00008C010020A14000088001002098
:1042700010B504464FF0FF312046FFF703FF10BD95
:1042800070B50546002625B12846FDF7DDFC04463D
:10429000A66B304670BD10B5044601212046FFF7DD
:1042A000F1FE10BD2DE9F04107460D46D7B1384665
:1042B000FDF7CAFC0446E16B606B461A002E00DA7B
:1042C0000026002D00DA0025B54200DD3546A06B42
:1042D000A84207D0A563384601F0FDFB052138460A
:1042E00001F050FCBDE8F08170B50446204601F0B5
:1042F000FDF9054601F0EFFB204601F0EDF905461A
:10430000252101F00EFD70BD70B50446B4F90450CE
:104310002846FDF799FC06462146284600F016FD82
:1043200000B970BD20680C2808D00E280CD00F28CA
:104330000FD12946304605F0CDF9F2E72246314645
:10434000284604F068FF04E02146284604F06CFC8F
:1043500000BF00BF204601F023F800BFE1E70000E6
:104360002DE9FF4F85B0804689469246DDE9135B13
:1043700045F001052C22184BA8B21299CDE9023262
:10438000CDE90010524649464046089B00F076FFB2
:104390000646EEB13046FDF757FC044610270BF0F9
:1043A000080008B147F008073A462046159900F082
:1043B000EBFE0A4A07CAC4E90B12A0620820A4F85F
:1043C00048006420A06300206063401E606400BF5A
:1043D000304609B0BDE8F08F094300089001002085
:1043E0002DE9FF4704460D4616461F46DDF830808E
:1043F00000BFB4F90800618A0022CDE90052CDE97E
:104400000210B4F91030B4F90E20B4F90CC00CEB62
:104410000701B4F90AC00CEB0600FFF7A1FF8146C3
:10442000484604B0BDE8F08770B505468DB1284612
:10443000FDF70AFC0446616BE06B884209DDE06B26
:10444000401EE063284601F046FB0521284601F0A6
:1044500099FB70BD70B505468DB12846FDF7F4FB9C
:104460000446D4E90E10884209DAE06B401CE06390
:10447000284601F030FB0521284601F083FB70BD82
:1044800070B506460D46B6B13046FDF7DDFB044675
:10449000606BA84200DD656BA06BA84200DAA56BDB
:1044A000E06BA84207D0E563304601F014FB05211C
:1044B000304601F067FB70BD704700000CB500206E
:1044C000019000903448006840F480303249086020
:1044D00000BF3148006800F4003000900198401C93
:1044E0000190009818B90198B0F5A06FF1D12A4851
:1044F000006800F4003010B10120009001E00020BD
:1045000000900098012846D123484030006840F0D0
:1045100080502149403108602048006840F48040C4
:104520001E4908601C48083000681B4908310860B3
:104530000846006840F4004008600846006840F4FF
:10454000A05008601648091F0860081F006840F066
:104550008070091F086000BF0F48006800F00070FD
:104560000028F9D040F205600E4908600A4808307A
:10457000006820F003000849083108600846006818
:1045800040F00200086000BF03480830006800F0F7
:104590000C000828F8D10CBD003802400070004023
:1045A000084B4007003C024002480068401C01499B
:1045B00008607047E400002010B51248006840F021
:1045C00001001049086000200E49083108600D48BC
:1045D00000680D4908400B4908600C48091D086037
:1045E000081F006820F48020091F0860002005498A
:1045F0000C310860FFF762FF4FF00060044908606B
:1046000010BD000000380240FFFFF6FE103000240D
:1046100008ED00E070B50446B4F904502846FDF7F3
:1046200013FB06462146284600F090FB00B970BDFA
:1046300020680B2806D00F2808D13146284605F0FF
:10464000F8F8F4E7304602F0F7FC00BF00BF204660
:1046500000F0A6FE00BFEAE72DE9FF4F85B08146D6
:104660008A46139F169D47F001071C221D4BB8B2C6
:104670001299CDE90232CDE9001051464846DDE9F4
:10468000072300F0FBFD8046B8F1000F25D000267F
:104690004046FDF7D9FA044600222046159900F05D
:1046A00073FD85B12846FBF7ABFD00F1010B5846C1
:1046B000FDF712FA064636B13046FDF7C5FA8346D5
:1046C0002946FBF7B1FD2687149800B26087064B98
:1046D0000FCB28340FC4383C00BF404609B0BDE8BA
:1046E000F08F0000154600089C0100202DE9F043E2
:1046F00085B004460D4616461F46DDF8308000BFE3
:10470000B4F90800628A02236168CDE90053CDE95B
:1047100002200491B4F91030B4F90E20B4F90CC0A1
:104720000CEB0701B4F90AC00CEB0600FFF794FF8D
:104730008146484605B0BDE8F08300002DE9FF5FE3
:104740000121880700F03BF9002833D001218807B8
:1047500000F026F9FEF762F917480088FBF706FF1C
:104760008046164A164BFBF70FFE06460022154BF5
:10477000FBF77CFE044605F09BFF0022124BCDE9BF
:104780000001FBF701FE82460022104BFBF755FDAE
:10479000CDE90201FBF7F7FE00B20D49064A128887
:1047A00021F8120004480088B0F5806F02D1002083
:1047B00001490880BDE8FF9F160000201F85EB51CE
:1047C000B81E094000004440000059400000694004
:1047D0006C65012010B5FFF7D9FA1648006840084B
:1047E0001549B0FBF1F0401E144908804FF47A706F
:1047F00013494860532008800020088148801148F0
:1048000000F042FA60201049088001204880002012
:10481000886088810B4800F02BF90821094800F0D6
:1048200079F90121074800F0AFF80121054800F0AF
:10483000BAF810BD18000020003FAB0102000020B4
:104840005402002000040040600200201CB5012139
:104850000846FFF7F1FB0F20009002208DF80500BD
:104860008DF8040000208DF806008DF807006946D9
:104870000B48FCF7F9FE022200210948FCF73CFF37
:10488000022201210648FCF737FF022211460448A4
:10489000FCF732FF022203210148FCF72DFF1CBD6B
:1048A00000000240F0B589B004460D4616461F468A
:1048B00001210820FFF7D0FB642007905320ADF8BA
:1048C00018000020ADF82000ADF81A0006A91B481A
:1048D00000F0DAF96020ADF804000120ADF8060020
:1048E00000200390ADF8100001A9144800F078F8FA
:1048F0000821124800F0B2F801A9104800F0B8F8F9
:1049000008210E4800F006F901A90C4800F010F942
:1049100008210A4800F05CF901A9084800F062F992
:104920000821064800F09AF90121044800F02CF80B
:104930000121024800F037F809B0F0BD000C00403A
:1049400010B5FFF783FF00231A4619461846FFF7F4
:10495000A9FF10BD2DE9F04104460F4615461E463D
:104960002146084800F087F93946064800F085F9E5
:104970002946044800F083F93146024800F081F9E5
:10498000BDE8F081000C004021B1028842F08002B5
:10499000028004E002884FF67F731A40028070475D
:1049A000CA430282704721B1028842F001020280AC
:1049B00004E002884FF6FE731A400280704730B55B
:1049C0000246002000230024158A05EA0103958988
:1049D00005EA010413B10CB1012000E0002030BD54
:1049E00070B5002400220023058C4FF6FE7635407A
:1049F0000584028C8388048B4FF68F752C40B51E7E
:104A00002C400D882C43751E2A408D892A434D88E1
:104A10002A43104DA84202D00F4DA84213D14FF6A1
:104A2000F7752A40CD892A434FF6FB752A408D88B9
:104A30002A434FF6FF652B404FF6FF552B400D8A5A
:104A40002B434D8A2B43838004838D684563028406
:104A500070BD000000000140000401400A46002132
:104A6000018B4FF6F7731940114301837047000023
:104A700070B5002400220023058C4FF6EF763540F8
:104A80000584028C8388048B48F6FF752C404FF612
:104A9000FF452C400D884FF6FF7606EA05252C438E
:104AA0004FF6DF752A408D8906EA05152A434D88A1
:104AB00006EA05152A43154DA84202D0144DA84216
:104AC0001DD14FF67F752A40CD894FF6FF7606EA55
:104AD00005152A434FF6BF752A408D8806EA05154D
:104AE0002A434FF6FF352B404FF2FF752B400D8ABE
:104AF00006EA85052B434D8A06EA85052B4383800C
:104B000004838D688563028470BD0000000001404D
:104B1000000401400A460021018B4FF2FF73194047
:104B20004FF6FF7303EA0223194301837047000025
:104B300070B5002400220023058C4FF6FF66354037
:104B40000584028C8388848B4FF68F752C404FF63A
:104B5000FC752C400D882C434FF6FF552A408D895B
:104B60004FF6FF7606EA05252A434D8806EA052515
:104B70002A43154DA84202D0144DA8421DD14FF230
:104B8000FF752A40CD894FF6FF7606EA05252A43B0
:104B90004FF6FF352A408D8806EA05252A434EF652
:104BA000FF752B404DF6FF752B400D8A06EA051563
:104BB0002B434D8A06EA05152B43838084838D6839
:104BC000C563028470BD0000000001400004014084
:104BD0000A460021818B4FF6F773194011438183F8
:104BE0007047000070B5002200230024058C4EF6AB
:104BF000FF7635400584038C8488828B48F6FF75E8
:104C00002A404FF6FF452A400D884FF6FF7606EA08
:104C100005252A434DF6FF752B408D8906EA05359B
:104C20002B434D8806EA05352B430A4DA84202D096
:104C3000094DA84208D14BF6FF752C400D8A4FF65E
:104C4000FF7606EA85152C43848082838D6805648F
:104C5000038470BD00000140000401400A460021A9
:104C6000818B4FF2FF7319404FF6FF7303EA022363
:104C70001943818370474163704781637047C16303
:104C8000704701647047000000220288184B984268
:104C90000ED0184B98420BD0B0F1804F08D0164B75
:104CA000984205D0154B984202D0154B984204D13A
:104CB0004FF68F731A404B881A43124B984207D015
:104CC000114B984204D04FF6FF431A400B891A4308
:104CD00002804B68C3620B880385054B984202D063
:104CE000044B984201D18B7A03860123838270475B
:104CF00000000140000401400004004000080040A2
:104D0000000C0040001000400014004000BFFEE70F
:104D10002DE9F04106460F4676B13046FCF794FF88
:104D20000546E88C20EA0704E88CA04203D0EC8416
:104D3000304600F0D0FE00BFBDE8F0811CB56846EB
:104D400000F0F0FB684605F01DF81CBD2DE9F047AA
:104D500081460C464846FCF777FF05462068162832
:104D600045D008DC0D2832D0112821D0142863D07A
:104D7000152867D117E01E283ED01F2855D0B0F562
:104D8000407F5FD1286A4769A0682862286A406925
:104D90003F1A3946484604F074FF484600F09BFE2F
:104DA0000020BDE8F087B5F92400A0600020F8E7F6
:104DB00095F8260000F0100040B1D4F8088098F86B
:104DC000080010B1484601F031F800BF3AE0D4F8CD
:104DD00008A0DAF80880B8F1000F07D098F80800AA
:104DE00020B1484600F034FA0020DAE72AE02089B2
:104DF00000B2A8840020D4E7A068012807D1E88C7D
:104E000040F00101484600F034F8082606E0E88C3E
:104E100020F00101484600F02CF8092631464846AA
:104E200000F0B0FE0020A060BBE795F82600C0F3BC
:104E30000010A0600020B4E72846A16800F05CF9EB
:104E40000020AEE700BF0120ABE770B506460C4678
:104E500076B13046FCF7F8FE0546E88C2040A042CB
:104E600005D0E88C2043E884304600F034FE00BFD3
:104E700070BD70B506460C463046FCF7E5FE0546AB
:104E8000E88CA04203D0EC84304600F024FE70BDD4
:104E90007CB506460C46154696F8260000F008003C
:104EA00028B122466946304600F078F96C4629461A
:104EB0002046FDF78FFA7CBD2DE9FF4107460C46E1
:104EC00015461E4697F8260000F00800C8B120B22B
:104ED000ADF8080020B2ADF80C0028B2ADF80A0019
:104EE00030B2ADF80E0002AA6946384600F056F915
:104EF000BDF90420BDF90010BDF90200FDF7A6FAC6
:104F000004E0324629462046FDF72AFBBDE8FF8132
:104F10007CB505460C461CB9684600F003FB6C46A0
:104F200095F8260000F0080028B122466946284678
:104F300000F034F96C462146284603F091F818B188
:104F4000286AC168204688477CBD7CB504460D466A
:104F500094F8260000F0080028B12A466946204649
:104F600000F01CF96D462946204603F079F818B187
:104F7000206A8168284688477CBD7CB505460C467A
:104F800095F8260000F0080030B122466946284610
:104F900000F004F96C4600BF2046FDF73DFB7CBDE8
:104FA0002DE9FC4106460C4617461D46434840691C
:104FB00078B32068009060680190BDF800003F4918
:104FC000B1F84410084400B2ADF80000BDF802008A
:104FD0003A49B1F84810084400B2ADF80200BDF8F3
:104FE00004003649B1F84410084400B2ADF804009A
:104FF000BDF806003149B1F84810084400B2ADF8D8
:1050000006002E4948696946FDF7ACFC10B9BDE8B9
:10501000FC8100E000BF002E4AD03078002846D046
:105020002A4639466846FEF749F8BDF902C0ACF198
:105030000103B4F90420B4F90210B4F90000FCF73C
:10504000B9FFBDF90630BDF900C0ACF10102BDF9F0
:105050000210B4F90000FCF7ADFFBDF90630B4F959
:105060000420BDF90210BDF904C00CF10100FCF7E9
:10507000A1FFB4F90630B4F90420BDF906C00CF163
:105080000101B4F90000FCF795FF384600F05AFF23
:1050900080460020FDF7B0FCB5F90220B5F90010FC
:1050A0003046FDF781F8404600F04CFFAFE700BF07
:1050B0002046FCF7B7FF00BFA9E70000E06201202F
:1050C0007CB505460C4695F8260000F0080078B13E
:1050D000684600F027FABDF802002080BDF80600FF
:1050E000A080BDF800006080BDF80400E08002E010
:1050F000204600F017FA7CBD70B504460D462946DF
:10510000204600F0BCFF206A294642692846FEF787
:1051100019F870BD70B504462046FCF795FD0546AC
:1051200095F8260000F0080018B1204600F037FB83
:1051300070BD204600F023FBFAE7014691F82600F7
:1051400000F0080028B1B1F90600B1F90230C21A26
:1051500004E0B1F90400B1F90030C21A501C7047E4
:10516000014691F8260000F0080028B1B1F90400CA
:10517000B1F90030C21A04E0B1F90600B1F9023009
:10518000C21A501C70470000034B1B680362C284A4
:105190000BB2838470470000AC010020F0B5B2F977
:1051A0000050B2F90430B0F90460B0F90070F41B9B
:1051B000D688A61B36B20E805688A61B36B28E80C5
:1051C0004D80CB80F0BD2DE9F04105460E461446DA
:1051D000FE21284600F0CAF907463146384600F05D
:1051E0008FFEFF21284600F0C1F9074621463846C8
:1051F00000F086FEBDE8F0812DE9F04705462DB3AD
:105200002846FCF721FD0446284600F0BFFF06466D
:10521000E6B1284600F060FA8146207F00F00200E7
:1052200028B1B4F91A204946204601F0E9F8484669
:10523000FCF70AFD80463046FCF706FD0746618B09
:105240007983B8F818006083A8F81850BDE8F08793
:1052500010B50446204601F0E1FC10BD83680268E9
:10526000D11A002900DA00214268002A01DA00225E
:10527000426042688A4200DD416070472DE9F84F84
:105280008046894692469B46DDE90A75404800887B
:1052900005432FB93F48008810B13F48B0F900706E
:1052A000781C00B90027F7B13846FCF7CDFC06465C
:1052B000B6F900008044B6F902008144BAF1000F4B
:1052C00006D1B6F90400B6F90010401A00F1010A3F
:1052D000BBF1000F06D1B6F90600B6F90210401A6C
:1052E00000F1010B00BF0D982030FCF7F5FB00909A
:1052F000002849D027480088401C2649088000988B
:10530000FCF7A2FC04460FFA88F020800FFA89F01F
:10531000608008EB0A00401E00B2A08009EB0B0081
:10532000401E00B2E0800C982061A08B43F69F7174
:1053300029400843A083009801F0D4FB3946009827
:1053400000F0D6FF05F0200010B1009800F0C0FC7E
:1053500005F0010020B111480068401C0F490860A9
:1053600005F0400010B10098FFF746FF05F002007D
:1053700030B1A08B40F00200A083009800F0ABFB9E
:105380000121009801F02AFA0098BDE8F88F00008A
:10539000C6010020B0010020BC010020D80100207F
:1053A0002DE9F0410446B4F90450A6682846FCF7FC
:1053B0004BFC0746206817280FD004DC0E280FD0BE
:1053C00014281AD104E022280FD0282815D110E083
:1053D0003146384600F053FE0FE0A560BDE8F0818D
:1053E0002146284600F0A5FCF8E76FF07040A06069
:1053F000F4E7284600F06FFBF0E700BF0020A06054
:10540000A06000BFEAE7000070B5044604B970BDB3
:10541000204601F0AFF8002848D02046FCF714FCE5
:105420000546FEF729FE2248B0F90000A04202D14D
:1054300000201F4908801F48B0F90000A04202D197
:1054400000201C490880204601F016FD0721204657
:1054500000F098FB284601F0F5FD0B21204601F0F5
:10546000BDF9204600F0D7FD204601F01BF9287F4A
:1054700000F0010020B110480068401E0E4908608D
:10548000287F00F0200020B10C480088401E0B4906
:1054900008800B480088401E094908802046FCF718
:1054A0002CFB0848B0F9000000F012FC00BFAEE78A
:1054B000CA010020C8010020D8010020B20100204C
:1054C000B0010020B401002070B5044600BF4CB10B
:1054D0002046FCF7B9FB0546A88B42F2040188433D
:1054E000A88300BF70BD70B504460D46164632460F
:1054F0002946204600F0A5FD70BD00000148B0F926
:1055000040007047E06201203EB504463CB12220D5
:1055100000906946204600F0FBFB02983EBD6FF00C
:105520007040FBE770B504460748008818B106488C
:10553000B0F9000002E00548B0F9400005462146F8
:10554000284600F005F870BDDC010020E062012073
:1055500070B504460D4644B13DB12046FCF774FBDE
:1055600006462946304600F08AFD70BD70B50446F7
:105570000D46002624B12946204603F0A5F806462C
:10558000304670BD10B5044624B12046FCF75CFBE4
:10559000B0F91840204610BD70B5044600251CB176
:1055A0002046FCF751FB858B284670BD70B505463B
:1055B000002635B12846FCF747FB0446207F00F063
:1055C0000106304670BD3EB5044615200090694680
:1055D000204600F09DFB02983EBD3EB505460C46B8
:1055E0000294142000906946284600F091FB3EBDCD
:1055F0002DE9F04186B080460D46B8F1000F53D03A
:10560000002D51D0FF214046FFF7B0FF0746FE2195
:105610004046FFF7ABFF064604A9404600F09FF85E
:1056200002A94046FFF7D9FFE6B16946304600F0CF
:1056300096F8BDF912004242BDF910004142684699
:10564000FDF75DF93046FFF7A7FF044604F0800040
:1056500040B104F0020028B1BDF80000401E00B2C5
:10566000ADF80C00E7B16946384600F078F8BDF9AE
:1056700012004242BDF9100041426846FDF73FF971
:105680003846FFF789FF044604F4807040B104F007
:10569000020028B1BDF80200401E00B2ADF80E00B5
:1056A000029828600398686006B0BDE8F0810000A9
:1056B00010B50349B1F9400000F03BF810BD0000FF
:1056C000E062012010B50349B1F9400000F03CF858
:1056D00010BD0000E062012010B5044624B1204650
:1056E000FCF7B2FAB0F91640204610BD70B5054679
:1056F0002846FFF768FF0446FF2C01D1FE2402E094
:10570000FE2C00D1FF242846FFF7E6FF064621467F
:10571000FFF72CFF70BD10B50446FF212046FFF7B0
:1057200025FF10BD10B50446FE212046FFF71EFFE1
:1057300010BD70B50446002524B12046FCF784FA5C
:10574000B0F90050284670BD70B50446002524B15C
:105750002046FCF779FAB0F90250284670BD70B5C2
:1057600005460C4655B14CB12846FCF76DFA064685
:105770001EB1306820607068606000BF70BD70B599
:105780000446204602F098FF04462046FCF75CFAE7
:105790000646304600F015FD0546284670BD70B53A
:1057A0000446204602F088FF04462046FCF74CFAE7
:1057B0000646304600F00DFD0546284670BD000047
:1057C00070B592B0002600200A900B900C9007A8AC
:1057D000FDF7A8F88C49B1F9001007980844079024
:1057E0008A49B1F900100898084408900DA800F003
:1057F000DDFB87480068079988420AD184484068E1
:105800000899884205D18248007A9DF82410884280
:1058100071D0DDE90701FCF79FFA07A804F032F820
:10582000ADF838007B48808818B37A48B0F9040096
:10583000BDF9381088421CD07649B1F9040000F057
:1058400067FEB0B17349B1F9040000F054FE80B1B5
:1058500007A807C80AAB07C312200F900AA8119027
:105860006C49B1F904000FA900F0E4FF0020694978
:105870008880BDF9380000F04BFE00287DD0BDF8CF
:105880003800644988806248007A9DF82410884274
:1058900044D0BDF83800002840D0BDF93800FCF7EE
:1058A000D3F905469DF824008DF80C005848007A7D
:1058B0008DF80D00B5F900100798401A0190B5F960
:1058C00002100898401A029001A8119011200F9020
:1058D0004F4A07CA04AB07C39DF824004C4908721D
:1058E0009DF8300040B14C48B0F90440BDF8380094
:1058F0004949888001E080E00024BDF938000FA903
:1059000000F04CFF424804A90EC90EC02CB120463D
:1059100000F026F908B14048848000BF3C48007A76
:105920009DF82410084300284BD00C200F9001262E
:105930003948B0F90400BDF9381088421CD0364807
:105940008088C8B19DF8240010B1002011900AE0B1
:105950002F4800680A902E4840680B9000208DF870
:1059600030000AA811902C49B1F904000FA900F0E9
:1059700061FF00202849888000E037E09DF824007E
:1059800023490872BDF8380080B307A807C80AABDE
:1059900007C39DF8300020B1BDF838001E4988804B
:1059A00007E01E48007808B100F000F900201A490D
:1059B00088800AA81190BDF938000FA900F03AFFBD
:1059C00014E0BDF8380088B1BDF9380000F093FD4F
:1059D00060B107A807C80AAB07C310200F900AA838
:1059E0001190BDF938000FA900F024FF084807A95D
:1059F0000EC90EC007A800F0D1F80DA800F030FEC7
:105A0000304612B070BD0000A8000020AA0000209F
:105A10003C650120FC010020F4010020CC010020A5
:105A200001460448B0F90000814201D101207047CD
:105A30000020FCE7C801002070B505469DB128464E
:105A4000FCF702F90446207F00F0020050B1B4F9DF
:105A50001A20B4F91610204600F0D2FCA08B20F0DA
:105A60000200A08300BF70BD2DE9FF4105460E4630
:105A700055B32846FCF7E8F80446A78B07F0020068
:105A800010B3D4E90001CDE9020166B1306800909D
:105A9000706801906946204600F090FA694602A8B5
:105AA000FDF7EBFA00BF294602A800F092FA58B1C0
:105AB00040F601003840012807D1B4F91A20B4F9A2
:105AC000161002A800F09CFC03E002A9284600F092
:105AD00059FCBDE8FF8110B5044600212046FFF7C0
